:1000000012C024C023C022C021C020C01FC01EC0F7
:100010001DC01CC01BC01AC019C018C017C016C014
:1000200015C014C013C011241FBECFE5D4E0DEBF3D
:10003000CDBF10E0A0E6B0E0E6E0F1E002C0059040
:100040000D92AA36B107D9F741D05BC0D9CF41E0B4
:1000500050E068EC70E015C0979A28E833E1FB01A6
:100060003197F1F721503040D1F722B312BA28E886
:1000700033E1FB013197F1F721503040D1F74F5F69
:100080005F4F8417950744F70895CF93DF93C5E634
:10009000D0E048EC50E09E0126503040888188BB7B
:1000A000A9E6B0E08C9182BB80E197E2FA0131973A
:1000B000F1F70197D9F711972A173B0799F721977D
:1000C0002C173D0759F7DF91CF91089518BA8FEF9C
:1000D00087BB12BA81BB85BB82E084BB8091600084
:1000E00088BB82BB85B315BA989BFECF81E090E0B8
:1000F000AEDFA99ACADF85B315BA83E090E0A7DF27
:06010000F3CFF894FFCFDD
:0A0106007E306D79335B1F707F734C
:00000001FF
